{
  "abi": [
    {
      "inputs": [
        {
          "internalType": "string",
          "name": "_name",
          "type": "string"
        },
        {
          "internalType": "string",
          "name": "_symbol",
          "type": "string"
        },
        {
          "internalType": "string",
          "name": "_metadataFolderURI",
          "type": "string"
        },
        {
          "internalType": "uint256",
          "name": "_mintsPerAddress",
          "type": "uint256"
        },
        {
          "internalType": "string",
          "name": "_openseaContractMetadataURL",
          "type": "string"
        },
        {
          "internalType": "bool",
          "name": "_mintActive",
          "type": "bool"
        },
        {
          "internalType": "address",
          "name": "_validSigner",
          "type": "address"
        }
      ],
      "stateMutability": "nonpayable",
      "type": "constructor"
    },
    {
      "anonymous": false,
      "inputs": [
        {
          "indexed": true,
          "internalType": "address",
          "name": "owner",
          "type": "address"
        },
        {
          "indexed": true,
          "internalType": "address",
          "name": "approved",
          "type": "address"
        },
        {
          "indexed": true,
          "internalType": "uint256",
          "name": "tokenId",
          "type": "uint256"
        }
      ],
      "name": "Approval",
      "type": "event"
    },
    {
      "anonymous": false,
      "inputs": [
        {
          "indexed": true,
          "internalType": "address",
          "name": "owner",
          "type": "address"
        },
        {
          "indexed": true,
          "internalType": "address",
          "name": "operator",
          "type": "address"
        },
        {
          "indexed": false,
          "internalType": "bool",
          "name": "approved",
          "type": "bool"
        }
      ],
      "name": "ApprovalForAll",
      "type": "event"
    },
    {
      "anonymous": false,
      "inputs": [
        {
          "indexed": true,
          "internalType": "address",
          "name": "previousOwner",
          "type": "address"
        },
        {
          "indexed": true,
          "internalType": "address",
          "name": "newOwner",
          "type": "address"
        }
      ],
      "name": "OwnershipTransferred",
      "type": "event"
    },
    {
      "anonymous": false,
      "inputs": [
        {
          "indexed": true,
          "internalType": "address",
          "name": "from",
          "type": "address"
        },
        {
          "indexed": true,
          "internalType": "address",
          "name": "to",
          "type": "address"
        },
        {
          "indexed": true,
          "internalType": "uint256",
          "name": "tokenId",
          "type": "uint256"
        }
      ],
      "name": "Transfer",
      "type": "event"
    },
    {
      "inputs": [
        {
          "internalType": "address",
          "name": "to",
          "type": "address"
        },
        {
          "internalType": "uint256",
          "name": "tokenId",
          "type": "uint256"
        }
      ],
      "name": "approve",
      "outputs": [],
      "stateMutability": "nonpayable",
      "type": "function"
    },
    {
      "inputs": [
        {
          "internalType": "address",
          "name": "owner",
          "type": "address"
        }
      ],
      "name": "balanceOf",
      "outputs": [
        {
          "internalType": "uint256",
          "name": "",
          "type": "uint256"
        }
      ],
      "stateMutability": "view",
      "type": "function"
    },
    {
      "inputs": [],
      "name": "contractURI",
      "outputs": [
        {
          "internalType": "string",
          "name": "",
          "type": "string"
        }
      ],
      "stateMutability": "view",
      "type": "function"
    },
    {
      "inputs": [],
      "name": "getAddress",
      "outputs": [
        {
          "internalType": "address",
          "name": "",
          "type": "address"
        }
      ],
      "stateMutability": "view",
      "type": "function"
    },
    {
      "inputs": [
        {
          "internalType": "uint256",
          "name": "tokenId",
          "type": "uint256"
        }
      ],
      "name": "getApproved",
      "outputs": [
        {
          "internalType": "address",
          "name": "",
          "type": "address"
        }
      ],
      "stateMutability": "view",
      "type": "function"
    },
    {
      "inputs": [],
      "name": "getBalance",
      "outputs": [
        {
          "internalType": "uint256",
          "name": "",
          "type": "uint256"
        }
      ],
      "stateMutability": "view",
      "type": "function"
    },
    {
      "inputs": [
        {
          "internalType": "address",
          "name": "owner",
          "type": "address"
        },
        {
          "internalType": "address",
          "name": "operator",
          "type": "address"
        }
      ],
      "name": "isApprovedForAll",
      "outputs": [
        {
          "internalType": "bool",
          "name": "",
          "type": "bool"
        }
      ],
      "stateMutability": "view",
      "type": "function"
    },
    {
      "inputs": [],
      "name": "metadataFolderURI",
      "outputs": [
        {
          "internalType": "string",
          "name": "",
          "type": "string"
        }
      ],
      "stateMutability": "view",
      "type": "function"
    },
    {
      "inputs": [],
      "name": "mintActive",
      "outputs": [
        {
          "internalType": "bool",
          "name": "",
          "type": "bool"
        }
      ],
      "stateMutability": "view",
      "type": "function"
    },
    {
      "inputs": [
        {
          "internalType": "address",
          "name": "minter",
          "type": "address"
        },
        {
          "internalType": "uint8",
          "name": "v",
          "type": "uint8"
        },
        {
          "internalType": "bytes32",
          "name": "r",
          "type": "bytes32"
        },
        {
          "internalType": "bytes32",
          "name": "s",
          "type": "bytes32"
        }
      ],
      "name": "mintWithSignature",
      "outputs": [
        {
          "internalType": "uint256",
          "name": "",
          "type": "uint256"
        }
      ],
      "stateMutability": "payable",
      "type": "function"
    },
    {
      "inputs": [
        {
          "internalType": "address",
          "name": "",
          "type": "address"
        }
      ],
      "name": "minted",
      "outputs": [
        {
          "internalType": "uint256",
          "name": "",
          "type": "uint256"
        }
      ],
      "stateMutability": "view",
      "type": "function"
    },
    {
      "inputs": [],
      "name": "mintedCount",
      "outputs": [
        {
          "internalType": "uint256",
          "name": "",
          "type": "uint256"
        }
      ],
      "stateMutability": "view",
      "type": "function"
    },
    {
      "inputs": [],
      "name": "mintsPerAddress",
      "outputs": [
        {
          "internalType": "uint256",
          "name": "",
          "type": "uint256"
        }
      ],
      "stateMutability": "view",
      "type": "function"
    },
    {
      "inputs": [],
      "name": "name",
      "outputs": [
        {
          "internalType": "string",
          "name": "",
          "type": "string"
        }
      ],
      "stateMutability": "view",
      "type": "function"
    },
    {
      "inputs": [],
      "name": "openseaContractMetadataURL",
      "outputs": [
        {
          "internalType": "string",
          "name": "",
          "type": "string"
        }
      ],
      "stateMutability": "view",
      "type": "function"
    },
    {
      "inputs": [],
      "name": "owner",
      "outputs": [
        {
          "internalType": "address",
          "name": "",
          "type": "address"
        }
      ],
      "stateMutability": "view",
      "type": "function"
    },
    {
      "inputs": [
        {
          "internalType": "uint256",
          "name": "tokenId",
          "type": "uint256"
        }
      ],
      "name": "ownerOf",
      "outputs": [
        {
          "internalType": "address",
          "name": "",
          "type": "address"
        }
      ],
      "stateMutability": "view",
      "type": "function"
    },
    {
      "inputs": [
        {
          "internalType": "address",
          "name": "payee",
          "type": "address"
        },
        {
          "internalType": "uint256",
          "name": "amountInEth",
          "type": "uint256"
        }
      ],
      "name": "pay",
      "outputs": [],
      "stateMutability": "nonpayable",
      "type": "function"
    },
    {
      "inputs": [],
      "name": "price",
      "outputs": [
        {
          "internalType": "uint256",
          "name": "",
          "type": "uint256"
        }
      ],
      "stateMutability": "view",
      "type": "function"
    },
    {
      "inputs": [],
      "name": "renounceOwnership",
      "outputs": [],
      "stateMutability": "nonpayable",
      "type": "function"
    },
    {
      "inputs": [
        {
          "internalType": "address",
          "name": "from",
          "type": "address"
        },
        {
          "internalType": "address",
          "name": "to",
          "type": "address"
        },
        {
          "internalType": "uint256",
          "name": "tokenId",
          "type": "uint256"
        }
      ],
      "name": "safeTransferFrom",
      "outputs": [],
      "stateMutability": "nonpayable",
      "type": "function"
    },
    {
      "inputs": [
        {
          "internalType": "address",
          "name": "from",
          "type": "address"
        },
        {
          "internalType": "address",
          "name": "to",
          "type": "address"
        },
        {
          "internalType": "uint256",
          "name": "tokenId",
          "type": "uint256"
        },
        {
          "internalType": "bytes",
          "name": "data",
          "type": "bytes"
        }
      ],
      "name": "safeTransferFrom",
      "outputs": [],
      "stateMutability": "nonpayable",
      "type": "function"
    },
    {
      "inputs": [
        {
          "internalType": "address",
          "name": "operator",
          "type": "address"
        },
        {
          "internalType": "bool",
          "name": "approved",
          "type": "bool"
        }
      ],
      "name": "setApprovalForAll",
      "outputs": [],
      "stateMutability": "nonpayable",
      "type": "function"
    },
    {
      "inputs": [
        {
          "internalType": "string",
          "name": "folderUrl",
          "type": "string"
        }
      ],
      "name": "setMetadataFolderURI",
      "outputs": [],
      "stateMutability": "nonpayable",
      "type": "function"
    },
    {
      "inputs": [
        {
          "internalType": "bool",
          "name": "_mintActive",
          "type": "bool"
        }
      ],
      "name": "setMintActive",
      "outputs": [],
      "stateMutability": "nonpayable",
      "type": "function"
    },
    {
      "inputs": [
        {
          "internalType": "address",
          "name": "_validSigner",
          "type": "address"
        }
      ],
      "name": "setValidSigner",
      "outputs": [],
      "stateMutability": "nonpayable",
      "type": "function"
    },
    {
      "inputs": [
        {
          "internalType": "bytes4",
          "name": "interfaceId",
          "type": "bytes4"
        }
      ],
      "name": "supportsInterface",
      "outputs": [
        {
          "internalType": "bool",
          "name": "",
          "type": "bool"
        }
      ],
      "stateMutability": "view",
      "type": "function"
    },
    {
      "inputs": [],
      "name": "symbol",
      "outputs": [
        {
          "internalType": "string",
          "name": "",
          "type": "string"
        }
      ],
      "stateMutability": "view",
      "type": "function"
    },
    {
      "inputs": [
        {
          "internalType": "uint256",
          "name": "tokenId",
          "type": "uint256"
        }
      ],
      "name": "tokenURI",
      "outputs": [
        {
          "internalType": "string",
          "name": "",
          "type": "string"
        }
      ],
      "stateMutability": "view",
      "type": "function"
    },
    {
      "inputs": [
        {
          "internalType": "address",
          "name": "from",
          "type": "address"
        },
        {
          "internalType": "address",
          "name": "to",
          "type": "address"
        },
        {
          "internalType": "uint256",
          "name": "tokenId",
          "type": "uint256"
        }
      ],
      "name": "transferFrom",
      "outputs": [],
      "stateMutability": "nonpayable",
      "type": "function"
    },
    {
      "inputs": [
        {
          "internalType": "address",
          "name": "newOwner",
          "type": "address"
        }
      ],
      "name": "transferOwnership",
      "outputs": [],
      "stateMutability": "nonpayable",
      "type": "function"
    },
    {
      "inputs": [],
      "name": "validSigner",
      "outputs": [
        {
          "internalType": "address",
          "name": "",
          "type": "address"
        }
      ],
      "stateMutability": "view",
      "type": "function"
    },
    {
      "inputs": [],
      "name": "withdraw",
      "outputs": [],
      "stateMutability": "nonpayable",
      "type": "function"
    }
  ],
  "bytecode": {
    "object": "0x60a06040523480156200001157600080fd5b506040516200240c3803806200240c833981016040819052620000349162000361565b8651879087906200004d906000906020850190620001c0565b50805162000063906001906020840190620001c0565b505050620000806200007a6200016a60201b60201c565b6200016e565b845162000095906008906020880190620001c0565b50600b8490558251620000b090600c906020860190620001c0565b50600a80546001600160a81b031916600160a01b841515026001600160a01b031916176001600160a01b038316179055604080517f284b311a74bd791371f8a75ca2d11b64cf908aa5cf713778b3a27fd8b40af00a60208201527fc89efdaa54c0f20c7adf612882df0950f5a951637e0307cdcb4c672f298b8bc69181019190915246606082015230608082015260a00160408051601f198184030181529190528051602090910120608052506200048595505050505050565b3390565b600680546001600160a01b038381166001600160a01b0319831681179093556040519116919082907f8be0079c531659141344cd1fd0a4f28419497f9722a3daafe3b4186f6b6457e090600090a35050565b828054620001ce9062000449565b90600052602060002090601f016020900481019282620001f257600085556200023d565b82601f106200020d57805160ff19168380011785556200023d565b828001600101855582156200023d579182015b828111156200023d57825182559160200191906001019062000220565b506200024b9291506200024f565b5090565b5b808211156200024b576000815560010162000250565b634e487b7160e01b600052604160045260246000fd5b600082601f8301126200028e57600080fd5b81516001600160401b0380821115620002ab57620002ab62000266565b604051601f8301601f19908116603f01168101908282118183101715620002d657620002d662000266565b81604052838152602092508683858801011115620002f357600080fd5b600091505b83821015620003175785820183015181830184015290820190620002f8565b83821115620003295760008385830101525b9695505050505050565b805180151581146200034457600080fd5b919050565b80516001600160a01b03811681146200034457600080fd5b600080600080600080600060e0888a0312156200037d57600080fd5b87516001600160401b03808211156200039557600080fd5b620003a38b838c016200027c565b985060208a0151915080821115620003ba57600080fd5b620003c88b838c016200027c565b975060408a0151915080821115620003df57600080fd5b620003ed8b838c016200027c565b965060608a0151955060808a01519150808211156200040b57600080fd5b506200041a8a828b016200027c565b9350506200042b60a0890162000333565b91506200043b60c0890162000349565b905092959891949750929550565b600181811c908216806200045e57607f821691505b6020821081036200047f57634e487b7160e01b600052602260045260246000fd5b50919050565b608051611f6b620004a160003960006109a80152611f6b6000f3fe6080604052600436106101ee5760003560e01c806370a082311161010d578063a22cb465116100a0578063cf721b151161006f578063cf721b1514610547578063e8a3d4851461055c578063e985e9c514610571578063ee1cc944146105ba578063f2fde38b146105da57600080fd5b8063a22cb465146104c7578063b88d4fde146104e7578063c407687614610507578063c87b56dd1461052757600080fd5b806395d89b41116100dc57806395d89b41146104735780639a893c1614610488578063a035b1fe1461049d578063a1182e8e146104b257600080fd5b806370a0823114610400578063715018a6146104205780638da5cb5b146104355780638f9d85201461045357600080fd5b80631e7269c5116101855780633ccfd60b116101545780633ccfd60b1461039557806342842e0e146103aa57806347cce091146103ca5780636352211e146103e057600080fd5b80631e7269c51461031457806323b872dd1461034157806325fd90f31461036157806338cc48311461038257600080fd5b806312065fe0116101c157806312065fe0146102a457806312d8b659146102c157806313be6d5d146102e15780631cc7d743146102f457600080fd5b806301ffc9a7146101f357806306fdde0314610228578063081812fc1461024a578063095ea7b314610282575b600080fd5b3480156101ff57600080fd5b5061021361020e366004611913565b6105fa565b60405190151581526020015b60405180910390f35b34801561023457600080fd5b5061023d61064c565b60405161021f919061198f565b34801561025657600080fd5b5061026a6102653660046119a2565b6106de565b6040516001600160a01b03909116815260200161021f565b34801561028e57600080fd5b506102a261029d3660046119d7565b610705565b005b3480156102b057600080fd5b50475b60405190815260200161021f565b3480156102cd57600080fd5b506102a26102dc366004611a01565b61081f565b6102b36102ef366004611a1c565b610849565b34801561030057600080fd5b50600a5461026a906001600160a01b031681565b34801561032057600080fd5b506102b361032f366004611a01565b60096020526000908152604090205481565b34801561034d57600080fd5b506102a261035c366004611a66565b610bb1565b34801561036d57600080fd5b50600a5461021390600160a01b900460ff1681565b34801561038e57600080fd5b503061026a565b3480156103a157600080fd5b506102a2610be2565b3480156103b657600080fd5b506102a26103c5366004611a66565b610c1d565b3480156103d657600080fd5b506102b3600b5481565b3480156103ec57600080fd5b5061026a6103fb3660046119a2565b610c38565b34801561040c57600080fd5b506102b361041b366004611a01565b610c98565b34801561042c57600080fd5b506102a2610d1e565b34801561044157600080fd5b506006546001600160a01b031661026a565b34801561045f57600080fd5b506102a261046e366004611aa2565b610d32565b34801561047f57600080fd5b5061023d610d46565b34801561049457600080fd5b5061023d610d55565b3480156104a957600080fd5b506102b3600081565b3480156104be57600080fd5b5061023d610de3565b3480156104d357600080fd5b506102a26104e2366004611b24565b610df0565b3480156104f357600080fd5b506102a2610502366004611b6d565b610dfb565b34801561051357600080fd5b506102a26105223660046119d7565b610e33565b34801561053357600080fd5b5061023d6105423660046119a2565b610ec2565b34801561055357600080fd5b506102b3610f75565b34801561056857600080fd5b5061023d610f85565b34801561057d57600080fd5b5061021361058c366004611c49565b6001600160a01b03918216600090815260056020908152604080832093909416825291909152205460ff1690565b3480156105c657600080fd5b506102a26105d5366004611c73565b610f94565b3480156105e657600080fd5b506102a26105f5366004611a01565b610fba565b60006001600160e01b031982166380ac58cd60e01b148061062b57506001600160e01b03198216635b5e139f60e01b145b8061064657506301ffc9a760e01b6001600160e01b03198316145b92915050565b60606000805461065b90611c8e565b80601f016020809104026020016040519081016040528092919081815260200182805461068790611c8e565b80156106d45780601f106106a9576101008083540402835291602001916106d4565b820191906000526020600020905b8154815290600101906020018083116106b757829003601f168201915b5050505050905090565b60006106e982611033565b506000908152600460205260409020546001600160a01b031690565b600061071082610c38565b9050806001600160a01b0316836001600160a01b0316036107825760405162461bcd60e51b815260206004820152602160248201527f4552433732313a20617070726f76616c20746f2063757272656e74206f776e656044820152603960f91b60648201526084015b60405180910390fd5b336001600160a01b038216148061079e575061079e813361058c565b6108105760405162461bcd60e51b815260206004820152603d60248201527f4552433732313a20617070726f76652063616c6c6572206973206e6f7420746f60448201527f6b656e206f776e6572206f7220617070726f76656420666f7220616c6c0000006064820152608401610779565b61081a8383611092565b505050565b610827611100565b600a80546001600160a01b0319166001600160a01b0392909216919091179055565b600a54600090600160a01b900460ff1615156001146108aa5760405162461bcd60e51b815260206004820152601760248201527f6d696e74206973206e6f742061637469766520726e2e2e0000000000000000006044820152606401610779565b6001600160a01b03851633146109025760405162461bcd60e51b815260206004820152601d60248201527f796f75206861766520746f206d696e7420666f7220796f757273656c660000006044820152606401610779565b600b5433600090815260096020526040902054106109625760405162461bcd60e51b815260206004820152601e60248201527f6f6e6c792031206d696e74207065722077616c6c6574206164647265737300006044820152606401610779565b34156109a45760405162461bcd60e51b815260206004820152601160248201527054686973206d696e74206973206672656560781b6044820152606401610779565b60007f0000000000000000000000000000000000000000000000000000000000000000866040516020016109eb9291909182526001600160a01b0316602082015260400190565b604051602081830303815290604052805190602001209050600081604051602001610a4291907f19457468657265756d205369676e6564204d6573736167653a0a3332000000008152601c810191909152603c0190565b60408051601f198184030181528282528051602091820120600080855291840180845281905260ff8a169284019290925260608301889052608083018790529092509060019060a0016020604051602081039080840390855afa158015610aad573d6000803e3d6000fd5b5050604051601f1901519150506001600160a01b038116610b105760405162461bcd60e51b815260206004820152601860248201527f45434453413a20696e76616c6964207369676e617475726500000000000000006044820152606401610779565b600a546001600160a01b03828116911614610b5e5760405162461bcd60e51b815260206004820152600e60248201526d24b73b30b634b21039b4b3b732b960911b6044820152606401610779565b610b6c600780546001019055565b336000908152600960205260408120805491610b8783611cde565b91905055506000610b9760075490565b9050610ba3338261115a565b93505050505b949350505050565b610bbb3382611174565b610bd75760405162461bcd60e51b815260040161077990611cf7565b61081a8383836111f2565b610bea611100565b6040514790339082156108fc029083906000818181858888f19350505050158015610c19573d6000803e3d6000fd5b5050565b61081a83838360405180602001604052806000815250610dfb565b6000818152600260205260408120546001600160a01b0316806106465760405162461bcd60e51b8152602060048201526018602482015277115490cdcc8c4e881a5b9d985b1a59081d1bdad95b88125160421b6044820152606401610779565b60006001600160a01b038216610d025760405162461bcd60e51b815260206004820152602960248201527f4552433732313a2061646472657373207a65726f206973206e6f7420612076616044820152683634b21037bbb732b960b91b6064820152608401610779565b506001600160a01b031660009081526003602052604090205490565b610d26611100565b610d30600061139d565b565b610d3a611100565b61081a60088383611864565b60606001805461065b90611c8e565b600c8054610d6290611c8e565b80601f0160208091040260200160405190810160405280929190818152602001828054610d8e90611c8e565b8015610ddb5780601f10610db057610100808354040283529160200191610ddb565b820191906000526020600020905b815481529060010190602001808311610dbe57829003601f168201915b505050505081565b60088054610d6290611c8e565b610c193383836113ef565b610e053383611174565b610e215760405162461bcd60e51b815260040161077990611cf7565b610e2d848484846114bd565b50505050565b610e3b611100565b4781811015610e8c5760405162461bcd60e51b815260206004820152601e60248201527f576520646f6e7420686176652074686174206d75636820746f207061792100006044820152606401610779565b6040516001600160a01b0384169083156108fc029084906000818181858888f19350505050158015610e2d573d6000803e3d6000fd5b6000818152600260205260409020546060906001600160a01b0316610f435760405162461bcd60e51b815260206004820152603160248201527f45524337323155524953746f726167653a2055524920717565727920666f72206044820152703737b732bc34b9ba32b73a103a37b5b2b760791b6064820152608401610779565b6008610f4e836114f0565b604051602001610f5f929190611d60565b6040516020818303038152906040529050919050565b6000610f8060075490565b905090565b6060600c805461065b90611c8e565b610f9c611100565b600a8054911515600160a01b0260ff60a01b19909216919091179055565b610fc2611100565b6001600160a01b0381166110275760405162461bcd60e51b815260206004820152602660248201527f4f776e61626c653a206e6577206f776e657220697320746865207a65726f206160448201526564647265737360d01b6064820152608401610779565b6110308161139d565b50565b6000818152600260205260409020546001600160a01b03166110305760405162461bcd60e51b8152602060048201526018602482015277115490cdcc8c4e881a5b9d985b1a59081d1bdad95b88125160421b6044820152606401610779565b600081815260046020526040902080546001600160a01b0319166001600160a01b03841690811790915581906110c782610c38565b6001600160a01b03167f8c5be1e5ebec7d5bd14f71427d1e84f3dd0314c0f7b2291e5b200ac8c7c3b92560405160405180910390a45050565b6006546001600160a01b03163314610d305760405162461bcd60e51b815260206004820181905260248201527f4f776e61626c653a2063616c6c6572206973206e6f7420746865206f776e65726044820152606401610779565b610c198282604051806020016040528060008152506115f1565b60008061118083610c38565b9050806001600160a01b0316846001600160a01b031614806111c757506001600160a01b0380821660009081526005602090815260408083209388168352929052205460ff165b80610ba95750836001600160a01b03166111e0846106de565b6001600160a01b031614949350505050565b826001600160a01b031661120582610c38565b6001600160a01b0316146112695760405162461bcd60e51b815260206004820152602560248201527f4552433732313a207472616e736665722066726f6d20696e636f72726563742060448201526437bbb732b960d91b6064820152608401610779565b6001600160a01b0382166112cb5760405162461bcd60e51b8152602060048201526024808201527f4552433732313a207472616e7366657220746f20746865207a65726f206164646044820152637265737360e01b6064820152608401610779565b600081815260046020908152604080832080546001600160a01b03191690556001600160a01b03861683526003909152812080546001929061130e908490611e06565b90915550506001600160a01b038216600090815260036020526040812080546001929061133c908490611e1d565b909155505060008181526002602052604080822080546001600160a01b0319166001600160a01b0386811691821790925591518493918716917fddf252ad1be2c89b69c2b068fc378daa952ba7f163c4a11628f55a4df523b3ef91a4505050565b600680546001600160a01b038381166001600160a01b0319831681179093556040519116919082907f8be0079c531659141344cd1fd0a4f28419497f9722a3daafe3b4186f6b6457e090600090a35050565b816001600160a01b0316836001600160a01b0316036114505760405162461bcd60e51b815260206004820152601960248201527f4552433732313a20617070726f766520746f2063616c6c6572000000000000006044820152606401610779565b6001600160a01b03838116600081815260056020908152604080832094871680845294825291829020805460ff191686151590811790915591519182527f17307eab39ab6107e8899845ad3d59bd9653f200f220920489ca2b5937696c31910160405180910390a3505050565b6114c88484846111f2565b6114d484848484611624565b610e2d5760405162461bcd60e51b815260040161077990611e35565b6060816000036115175750506040805180820190915260018152600360fc1b602082015290565b8160005b8115611541578061152b81611cde565b915061153a9050600a83611e9d565b915061151b565b60008167ffffffffffffffff81111561155c5761155c611b57565b6040519080825280601f01601f191660200182016040528015611586576020820181803683370190505b5090505b8415610ba95761159b600183611e06565b91506115a8600a86611eb1565b6115b3906030611e1d565b60f81b8183815181106115c8576115c8611ec5565b60200101906001600160f81b031916908160001a9053506115ea600a86611e9d565b945061158a565b6115fb8383611722565b6116086000848484611624565b61081a5760405162461bcd60e51b815260040161077990611e35565b60006001600160a01b0384163b1561171a57604051630a85bd0160e11b81526001600160a01b0385169063150b7a0290611668903390899088908890600401611edb565b6020604051808303816000875af19250505080156116a3575060408051601f3d908101601f191682019092526116a091810190611f18565b60015b611700573d8080156116d1576040519150601f19603f3d011682016040523d82523d6000602084013e6116d6565b606091505b5080516000036116f85760405162461bcd60e51b815260040161077990611e35565b805181602001fd5b6001600160e01b031916630a85bd0160e11b149050610ba9565b506001610ba9565b6001600160a01b0382166117785760405162461bcd60e51b815260206004820181905260248201527f4552433732313a206d696e7420746f20746865207a65726f20616464726573736044820152606401610779565b6000818152600260205260409020546001600160a01b0316156117dd5760405162461bcd60e51b815260206004820152601c60248201527f4552433732313a20746f6b656e20616c7265616479206d696e746564000000006044820152606401610779565b6001600160a01b0382166000908152600360205260408120805460019290611806908490611e1d565b909155505060008181526002602052604080822080546001600160a01b0319166001600160a01b03861690811790915590518392907fddf252ad1be2c89b69c2b068fc378daa952ba7f163c4a11628f55a4df523b3ef908290a45050565b82805461187090611c8e565b90600052602060002090601f01602090048101928261189257600085556118d8565b82601f106118ab5782800160ff198235161785556118d8565b828001600101855582156118d8579182015b828111156118d85782358255916020019190600101906118bd565b506118e49291506118e8565b5090565b5b808211156118e457600081556001016118e9565b6001600160e01b03198116811461103057600080fd5b60006020828403121561192557600080fd5b8135611930816118fd565b9392505050565b60005b8381101561195257818101518382015260200161193a565b83811115610e2d5750506000910152565b6000815180845261197b816020860160208601611937565b601f01601f19169290920160200192915050565b6020815260006119306020830184611963565b6000602082840312156119b457600080fd5b5035919050565b80356001600160a01b03811681146119d257600080fd5b919050565b600080604083850312156119ea57600080fd5b6119f3836119bb565b946020939093013593505050565b600060208284031215611a1357600080fd5b611930826119bb565b60008060008060808587031215611a3257600080fd5b611a3b856119bb565b9350602085013560ff81168114611a5157600080fd5b93969395505050506040820135916060013590565b600080600060608486031215611a7b57600080fd5b611a84846119bb565b9250611a92602085016119bb565b9150604084013590509250925092565b60008060208385031215611ab557600080fd5b823567ffffffffffffffff80821115611acd57600080fd5b818501915085601f830112611ae157600080fd5b813581811115611af057600080fd5b866020828501011115611b0257600080fd5b60209290920196919550909350505050565b803580151581146119d257600080fd5b60008060408385031215611b3757600080fd5b611b40836119bb565b9150611b4e60208401611b14565b90509250929050565b634e487b7160e01b600052604160045260246000fd5b60008060008060808587031215611b8357600080fd5b611b8c856119bb565b9350611b9a602086016119bb565b925060408501359150606085013567ffffffffffffffff80821115611bbe57600080fd5b818701915087601f830112611bd257600080fd5b813581811115611be457611be4611b57565b604051601f8201601f19908116603f01168101908382118183101715611c0c57611c0c611b57565b816040528281528a6020848701011115611c2557600080fd5b82602086016020830137600060208483010152809550505050505092959194509250565b60008060408385031215611c5c57600080fd5b611c65836119bb565b9150611b4e602084016119bb565b600060208284031215611c8557600080fd5b61193082611b14565b600181811c90821680611ca257607f821691505b602082108103611cc257634e487b7160e01b600052602260045260246000fd5b50919050565b634e487b7160e01b600052601160045260246000fd5b600060018201611cf057611cf0611cc8565b5060010190565b6020808252602d908201527f4552433732313a2063616c6c6572206973206e6f7420746f6b656e206f776e6560408201526c1c881bdc88185c1c1c9bdd9959609a1b606082015260800190565b60008151611d56818560208601611937565b9290920192915050565b600080845481600182811c915080831680611d7c57607f831692505b60208084108203611d9b57634e487b7160e01b86526022600452602486fd5b818015611daf5760018114611dc057611ded565b60ff19861689528489019650611ded565b60008b81526020902060005b86811015611de55781548b820152908501908301611dcc565b505084890196505b505050505050611dfd8185611d44565b95945050505050565b600082821015611e1857611e18611cc8565b500390565b60008219821115611e3057611e30611cc8565b500190565b60208082526032908201527f4552433732313a207472616e7366657220746f206e6f6e20455243373231526560408201527131b2b4bb32b91034b6b83632b6b2b73a32b960711b606082015260800190565b634e487b7160e01b600052601260045260246000fd5b600082611eac57611eac611e87565b500490565b600082611ec057611ec0611e87565b500690565b634e487b7160e01b600052603260045260246000fd5b6001600160a01b0385811682528416602082015260408101839052608060608201819052600090611f0e90830184611963565b9695505050505050565b600060208284031215611f2a57600080fd5b8151611930816118fd56fea264697066735822122068d395858ac79782229f1f53d0ffe062a80cf00d4a607a19cae0af2a1c387d6c64736f6c634300080d0033",
    "linkReferences": {}
  },
  "methodIdentifiers": {
    "approve(address,uint256)": "095ea7b3",
    "balanceOf(address)": "70a08231",
    "contractURI()": "e8a3d485",
    "getAddress()": "38cc4831",
    "getApproved(uint256)": "081812fc",
    "getBalance()": "12065fe0",
    "isApprovedForAll(address,address)": "e985e9c5",
    "metadataFolderURI()": "a1182e8e",
    "mintActive()": "25fd90f3",
    "mintWithSignature(address,uint8,bytes32,bytes32)": "13be6d5d",
    "minted(address)": "1e7269c5",
    "mintedCount()": "cf721b15",
    "mintsPerAddress()": "47cce091",
    "name()": "06fdde03",
    "openseaContractMetadataURL()": "9a893c16",
    "owner()": "8da5cb5b",
    "ownerOf(uint256)": "6352211e",
    "pay(address,uint256)": "c4076876",
    "price()": "a035b1fe",
    "renounceOwnership()": "715018a6",
    "safeTransferFrom(address,address,uint256)": "42842e0e",
    "safeTransferFrom(address,address,uint256,bytes)": "b88d4fde",
    "setApprovalForAll(address,bool)": "a22cb465",
    "setMetadataFolderURI(string)": "8f9d8520",
    "setMintActive(bool)": "ee1cc944",
    "setValidSigner(address)": "12d8b659",
    "supportsInterface(bytes4)": "01ffc9a7",
    "symbol()": "95d89b41",
    "tokenURI(uint256)": "c87b56dd",
    "transferFrom(address,address,uint256)": "23b872dd",
    "transferOwnership(address)": "f2fde38b",
    "validSigner()": "1cc7d743",
    "withdraw()": "3ccfd60b"
  },
  "id": 18
}